:100000000C9463000C948B000C948B000C948B006C
:100010000C948B000C948B000C94CB080C948B00EC
:100020000C948B000C948B000C948B000C948B0024
:100030000C948B000C948B000C948B000C948B0014
:100040000C94760D0C948B000C94060F0C948B0082
:100050000C948B000C948B000C948B000C948B00F4
:100060000C948B000C948B000000000024002700EF
:100070002A0000000000250028002B0000000000DE
:1000800023002600290004040404040404040202DA
:100090000202020203030303030301020408102007
:1000A0004080010204081020010204081020000012
:1000B0000007000201000003040600000000000029
:1000C0000000DA088B1011241FBECFEFD8E0DEBF8E
:1000D000CDBF11E0A0E0B1E0EAE4F8E202C0059093
:1000E0000D92AA35B107D9F712E0AAE5B1E001C037
:1000F0001D92AA32B107E1F710E0C6ECD0E004C0CF
:100100002297FE010E94E813C23CD107C9F70E9462
:100110006F0D0C9423140C940000A0E0B0E0E3E910
:10012000F0E00C94F413EC01A880B980CA80DB8065
:10013000A114B104C104D10441F484E2A82E89EDD4
:10014000B82E8BE5C82E87E0D82EC601B5012DE16B
:1001500033EF41E050E00E94B71327EA31E440E07A
:1001600050E00E9463137B018C01C601B5012DE1B3
:1001700033EF41E050E00E94B713CA01B9012CEE01
:1001800034EF4FEF5FEF0E9463136E0D7F1D801FF2
:10019000911F97FF04C06150704080409048688371
:1001A00079838A839B839B01AC015F77B901CA0184
:1001B000CDB7DEB7EAE00C9410140E948D000895CC
:1001C00086E491E00E948D0008956093460170934B
:1001D000470180934801909349010895FB01DC0198
:1001E0008D91019080190110D9F3990B0895FB01AD
:1001F000DC0101900D920020E1F70895AEE0B0E03F
:10020000E4E0F1E00C94FA130D891E8986E08C83FA
:100210001A8309838FEF9FE79E838D839E01275E5C
:100220003F4FCE0101966F89788DA9010E9422016E
:100230002F813885020F131FF80110822E96E4E0FB
:100240000C941614ABE0B0E0E8E2F1E00C94EC138F
:100250003C012B015A01FC0117821682838181FD2A
:1002600003C06FEF7FEFC6C19AE0892E1E0108948C
:10027000211C311CF3012381F20123FD859123FF11
:1002800081912F01882309F4B2C1853239F423FD0D
:10029000859123FF81912F01853229F490E0B301EC
:1002A0000E941503E7CF982FFF24EE249924FFE145
:1002B000FF15D0F09B3269F09C3228F4903259F04F
:1002C000933291F40EC09D3249F0903369F441E0CD
:1002D00024C052E0F52A84E0F82A28C098E0F92AE0
:1002E00025C0E0E1FE2A22C0F7FC29C0892F8053F7
:1002F0008A3070F4F6FE05C0989C902C1124980E5C
:1003000015C0E89CE02C1124E80EF0E2FF2A0EC094
:100310009E3229F4F6FC6BC140E4F42A07C09C36F7
:1003200019F450E8F52A02C0983649F4F20123FD89
:10033000959123FF91912F01992309F0B8CF892F2F
:100340008554833018F08052833038F444E050E014
:10035000A40EB51E5FE359830FC0933631F0933777
:1003600079F0933509F056C020C0F501808189836A
:1003700042E050E0A40EB51E610101E010E012C0A1
:10038000F501C080D180F6FC03C06FEF7FEF02C0A3
:10039000692D70E042E050E0A40EB51EC6010E9437
:1003A0000A038C015FE7F52214C0F501C080D180FB
:1003B000F6FC03C06FEF7FEF02C0692D70E042E0F2
:1003C00050E0A40EB51EC6010E94FF028C0150E849
:1003D000F52AF3FE07C01AC080E290E0B3010E9444
:1003E0001503EA948E2D90E008171907A8F30EC0A4
:1003F000F601F7FC8591F7FE81916F0190E0B30162
:100400000E941503E110EA940150104001151105F6
:1004100079F7EAC0943611F0993669F5F7FE08C00D
:10042000F501208131814281538184E090E00AC04E
:10043000F501808191819C01442737FD4095542F1F
:1004400082E090E0A80EB91E9FE6F92257FF09C08E
:1004500050954095309521953F4F4F4F5F4FE0E8C5
:10046000FE2ACA01B901A1012AE030E00E9441033D
:10047000D82ED21840C0953729F41F2D1F7E2AE0B0
:1004800030E01DC01F2D197F9F3661F0903720F49A
:10049000983509F0ACC00FC0903739F0983709F0A3
:1004A000A6C004C028E030E00AC0106114FD14604A
:1004B00020E130E004C014FD166020E132E017FFB7
:1004C00008C0F501608171818281938144E050E030
:1004D00008C0F50180819181BC0180E090E042E09C
:1004E00050E0A40EB51EA1010E944103D82ED218DF
:1004F0008FE7F82EF122F6FE0BC05EEFF522D9143D
:1005000038F4F4FE07C0F2FC05C08FEEF82202C0FA
:100510001D2D01C0192DF4FE0DC0FE01ED0DF11DC4
:100520008081803319F499EEF92208C01F5FF2FE32
:1005300005C003C08F2D867809F01F5F0F2DF3FCD7
:1005400014C0F0FE0FC01E1510F09D2C0BC09D2C8A
:100550009E0C911A1E2D06C080E290E0B3010E940D
:1005600015031F5F1E15C0F304C01E1510F4E11A19
:1005700001C0EE2404FF0FC080E390E0B3010E94AD
:10058000150302FF1DC001FD03C088E790E00EC007
:1005900088E590E00BC0802F867891F001FF02C0C3
:1005A0008BE201C080E2F7FC8DE290E0B3010E9493
:1005B000150306C080E390E0B3010E9415039A94EE
:1005C000D914C0F3DA94F101ED0DF11D808190E0B2
:1005D000B3010E941503DD20A9F706C080E290E078
:1005E000B3010E941503EA94EE20C1F743CEF30154
:1005F00066817781CB012B96E2E10C940814FC0113
:100600000590615070400110D8F7809590958E0F3D
:100610009F1F0895FC016150704001900110D8F7B0
:10062000809590958E0F9F1F08950F931F93CF93E2
:10063000DF938C01EB018B8181FF1BC082FF0DC01A
:100640002E813F818C819D812817390764F4E881D0
:10065000F9810193F983E88306C0E885F985802F45
:100660000995892B31F48E819F8101969F838E831A
:1006700002C00FEF1FEFC801DF91CF911F910F91C3
:100680000895FA01AA27283051F1203181F1E89428
:100690006F936E7F6E5F7F4F8F4F9F4FAF4FB1E075
:1006A0003ED0B4E03CD0670F781F891F9A1FA11D70
:1006B000680F791F8A1F911DA11D6A0F711D811D71
:1006C000911DA11D20D009F468943F912AE0269F36
:1006D00011243019305D3193DEF6CF010895462F95
:1006E0004770405D4193B3E00FD0C9F7F6CF462F76
:1006F0004F70405D4A3318F0495D31FD40524193DF
:1007000002D0A9F7EACFB4E0A6959795879577959B
:100710006795BA95C9F700976105710508959B0122
:10072000AC010A2E06945795479537952795BA95AB
:10073000C9F7620F731F841F951FA01D0895DC0168
:100740001A966C931A97462F50E0CA018A579F4F0A
:10075000FC0124911B962C931B9746565F4FFA0180
:1007600084911C968C931C9730E0220F331FF90163
:10077000EE58FF4F859194911E969C938E931D97F2
:10078000F901E458FF4F8591949150969C938E9374
:100790001F97F901E859FF4F8591949152969C93C8
:1007A0008E9351978FEF18968C93189719961C92E9
:1007B000199787E0FD01E80FF11D1082882311F0E1
:1007C0008150F8CF0895DC018FEF18968C9318971D
:1007D00019961C92199787E0FD01E80FF11D108210
:1007E000882311F08150F8CF0895FC0140E030E0FB
:1007F0005CE80EC0208190E0822F8327369580FD33
:1008000035279F5F983011F02695F6CF4F5F3196D0
:10081000461780F3832F0895FF920F931F938C0147
:10082000DC015196ED91FC91529780811C969C9130
:100830001C97892B80831D96ED91FC911E979081CA
:100840001C968C9180958923808381E090E00E94A2
:10085000020ED8015196ED91FC91529790811C9611
:100860008C9180958923808385E090E00E94020E20
:10087000D8011F96ED91FC9150972081FF2430E024
:100880001C968C9190E028233923232B11F0FF2410
:10089000F39482E390E00E94020E8F2D1F910F913E
:1008A000FF900895EF92FF920F931F93CF93DF93E2
:1008B0007C0101E010E0C0E0D0E0C7010E940C0420
:1008C0008111102B000F2196C830D105B1F7812F6F
:1008D000DF91CF911F910F91FF90EF900895EF92CC
:1008E000FF920F931F937C01062FDC015196ED912F
:1008F000FC91529780811C969C911C97892B808338
:100900001D96ED91FC911E9790811C968C9180957F
:1009100089238083017010E0F801E35BFE4F808142
:1009200090E00E94020ED7011D96ED91FC911E975A
:1009300080811C969C91892B8083055B1E4FF8015A
:10094000808190E00E94020E1F910F91FF90EF9026
:100950000895CF92DF92EF92FF920F931F93CF9360
:10096000DF938C01E42EFF24F394C0E0D0E0C62E88
:10097000DD2460E08F2D90E08C219D21892B09F0F2
:1009800061E0C8010E946F04FF0C2196C830D105B8
:1009900081F7EE2051F4F801828560E00E944A0E52
:1009A000F801828560E00E946A0EDF91CF911F916D
:1009B0000F91FF90EF90DF90CF9008956CEC40E0A6
:1009C0000E94A9040895EF92FF920F931F93CF9373
:1009D000DF938C017B0165E540E00E94A904C0E043
:1009E000D0E0F701EC0FFD1FC801608140E00E94DC
:1009F000A9042196C830D105A1F7DF91CF911F91AD
:100A00000F91FF90EF9008951F93CF93DF93EC0128
:100A10008A8560E00E944A0E1DE7115010F410E034
:100A200028C082E090E00E94020E8A850E94B70EE4
:100A3000892B99F38A8560E00E946A0E8A8561E0BD
:100A40000E944A0E84EF91E00E94020E8A8560E0C7
:100A50000E944A0E81E490E00E94020E8A850E9464
:100A6000B70E10E0892B09F411E08AEE91E00E94A4
:100A7000020E812FDF91CF911F9108958F929F9247
:100A8000AF92BF92DF92EF92FF920F931F93CF939B
:100A9000DF93EC015B018985882309F080C0CE01DA
:100AA0000E940405882309F47AC0CE0160EF40E07B
:100AB0000E94A904DD24DA94EE24E39400E010E01F
:100AC00021E0822E912CCE010E940C04F82ECE0142
:100AD0000E940C04282F502F569556955695C80104
:100AE00087709070B40102C0660F771F8A95E2F795
:100AF000462FFF2029F0222309F051C09F2D21C04D
:100B0000222339F58885992787FD909508171907BD
:100B100011F4D8860EC0081719076CF4262F30E0A0
:100B2000FE01E50FF11D808190E028233923232B5E
:100B300019F091E003C0088790E0EE24D02E9923AD
:100B400041F0FE01E50FF11D8081842B8083F92E99
:100B500007C0FE01E50FF11D4095808148234083C9
:100B6000CE016F2D0E946F040F5F1F4F00341105DF
:100B700009F0A9CFEE2011F081E0898720E030E074
:100B8000F501E20FF31FDE01A20FB31F8C918083EA
:100B90002F5F3F4F2830310599F781E001C080E099
:100BA000DF91CF911F910F91FF90EF90DF90BF9059
:100BB000AF909F908F900895FC0181EA96E0918B11
:100BC000808B75836483138210828FE190E092831F
:100BD000818308956F927F928F929F92AF92BF927E
:100BE000CF92DF92EF92FF920F931F93CF93DF93F9
:100BF000FB01EA01998180E0288130E0282B392B24
:100C0000E081E23231F0E83221F0E03109F084C0D5
:100C10004BC04C814F3329F1403420F44F3109F05F
:100C20007BC02FC04F3579F04F3709F075C0B9013F
:100C3000882777FD8095982F0E944C1220E030E0A5
:100C400040E85DE32EC035952795B901882777FDEB
:100C50008095982F0E944C1220E030E040E05EE347
:100C600020C03595279535952795B901882777FDBB
:100C70008095982F0E944C1220E030E040E85EE31F
:100C800010C093E0359527959A95E1F7B90188272B
:100C900077FD8095982F0E944C1220E030E040E0D4
:100CA0005FE30E94001332C0EF8035952795B901AC
:100CB000882777FD8095982F0E944C1220E030E025
:100CC00040E85EE30E9448113B014C016E2D70E04C
:100CD0002E81621B7109882777FD8095982F0E94CD
:100CE0004C125B016C01FF2400E010E0C801B70169
:100CF0000E944A129B01AC01C601B5010E94B111CC
:100D00009B01AC01C401B3010E9449119B01AC01DC
:100D1000832F942F752F00C0262F382F492F572F40
:100D2000B901CA01DF91CF911F910F91FF90EF9010
:100D3000DF90CF90BF90AF909F908F907F906F90FB
:100D4000089508950F931F938C01FC018481958170
:100D50000E940405F801848195810E94DE04F80157
:100D60008481958164E440810E94A904F801818115
:100D700092818F33910551F08F35910561F04F9736
:100D800079F46EE570E080E090E00EC06CEB70E00E
:100D900080E090E009C067E771E080E090E004C087
:100DA0006EEE72E080E090E00E94D80D1F910F91EE
:100DB0000895EF92FF920F931F938C017B01FC012A
:100DC000848195810E940405F80184819581B70191
:100DD0000E94E304F8018481958164EB40E00E9465
:100DE000A904F801848195810E940C04F82EF80171
:100DF000848195810E94040580E0FF2009F481E050
:100E00001F910F91FF90EF900895CF92DF92EF9294
:100E1000FF920F931F938C016B017A01FC01848177
:100E200095810E940405F80184819581B6010E9494
:100E3000E304F801848195816EEB40E00E94A904EF
:100E4000F801848195810E945204F7018083F801A2
:100E5000848195810E945204F7018183F801848185
:100E600095810E945204F7018283F8018481958163
:100E70000E945204F7018383F801848195810E94C6
:100E80005204F7018483F801848195810E94520401
:100E9000F7018583F801848195810E945204F7014E
:100EA0008683F801848195810E945204F70187832B
:100EB000F801848195810E945204F7018087F8012E
:100EC000848195810E9404051F910F91FF90EF90FE
:100ED000DF90CF9008950F931F938A010E9405071A
:100EE000C80168E00E94F50320E0F80190858917A9
:100EF00009F421E0822F1F910F910895CF92DF9284
:100F0000EF92FF920F931F93DF93CF93CDB7DEB78E
:100F100029970FB6F894DEBF0FBECDBF8C017B01C1
:100F20006E010894C11CD11CA6010E946B07882386
:100F300029F460E070EC89E794EC05C0C801B701C2
:100F4000A6010E94EA0529960FB6F894DEBF0FBEEF
:100F5000CDBFCF91DF911F910F91FF90EF90DF9068
:100F6000CF9008950F931F938B01CB0167E00E94F0
:100F7000F50320E0F8019781891709F421E0822F19
:100F80001F910F910895EF92FF920F931F93CF93AC
:100F9000DF93EC017B01042F8C819D810E94E30390
:100FA00010E005C0101789F01F5F011780F08C81D9
:100FB0009D81B7010E943E05882349F0CE01B7010B
:100FC0000E94B207882399F3EDCF81E001C080E051
:100FD000DF91CF911F910F91FF90EF900895EF92C5
:100FE000FF920F931F93DF93CF93CDB7DEB7289770
:100FF0000FB6F894DEBF0FBECDBF7C01462F8E0129
:101000000F5F1F4FB8010E94C307C701B8010E94BC
:101010007E0728960FB6F894DEBF0FBECDBFCF91E6
:10102000DF911F910F91FF90EF9008950E94EF07BD
:1010300026E636E646EE5FE30E94001320E030E04D
:1010400040E052E40E94491108959F92AF92BF92EE
:10105000CF92DF92EF92FF920F931F93DF93CF9384
:10106000CDB7DEB761970FB6F894DEBF0FBECDBF28
:101070008C01FC01848195810E94E3037E01089428
:10108000E11CF11CE9E0AE2EB12CAC0EBD1E7FE7D9
:10109000C72ED12C992493942DC0C801B7010E946A
:1010A000B207882339F1F8018081882341F4C8010F
:1010B000B7010E94D906882311F0F8019082C80177
:1010C000B701A5010E9405078981803121F4F8014B
:1010D000D282C1820BC08D85282F30E0F80181813A
:1010E00092818217930714F432832183F80183815C
:1010F0008F5F8383F80184819581B7010E943E054B
:10110000882359F661960FB6F894DEBF0FBECDBFA7
:10111000CF91DF911F910F91FF90EF90DF90CF90D3
:10112000BF90AF909F900895EAE7F0E080818F77BD
:10113000808383B7817F846083BF83B7816083BFEF
:1011400083B7816083BF889583B78E7F83BF83B762
:101150008E7F83BFEAE7F0E0808180688083089516
:101160008A30910514F089E090E0282F27700897C5
:101170000CF02062206184B7877F84BF809160007B
:10118000886180936000209360008091600080649B
:101190008093600008951F920F920FB60F92112452
:1011A0008F9381E080934A018F910F900FBE0F9033
:1011B0001F9018950F931F930AE511E0C8016BE08B
:1011C0000E949F038DE691E0B8010E94DC051F910B
:1011D0000F9108958EE480937C0062E070E080E0DF
:1011E00090E00E94D80D80917A00806480937A000C
:1011F00080917A0086FDFCCF8091780090E0A0E09D
:10120000B0E060917900362F20E0442737FD40950B
:10121000542F282B392B4A2B5B2B60E070E381E1A4
:1012200090E00E94B713CA01B9010895EF92FF92AE
:101230000F931F937C0107E112E0C80160E071E0A9
:101240000E94FC10C80168E071E00E94FC10C80117
:10125000B7010E941B111F910F91FF90EF9008950D
:101260008F929F92AF92BF92CF92DF92EF92FF92B6
:101270000F931F93FC016B015A01490107E112E032
:10128000C801BF010E94FC108CE0E82E81E0F82E1E
:10129000C801B7010E94FC10C801B6010E94FC10F1
:1012A000C801B7010E94FC10C801B5010E94FC10E2
:1012B000C801B7010E94FC10C801B4010E941B11B3
:1012C0001F910F91FF90EF90DF90CF90BF90AF9064
:1012D0009F908F9008950E94CA0D809181019091F6
:1012E000820120918301309184018217930730F0AD
:1012F0006817790718F020E030E008C080E090E03F
:101300002617370710F481E090E09C01C901089589
:101310000F931F938C010E94CA0D9B017093820151
:1013200060938101200F311F30938401209383014A
:101330001F910F91089504C087E192E00E94501020
:1013400087E192E00E943C108823B1F70895AC0138
:10135000DB010D900020E9F71197A61BB70B20E0E9
:1013600030E01DC0FB01E20FF31F80814827842F6E
:1013700082958427082E869586958025082E869549
:1013800080258770042E452F869507948795502DCC
:10139000482706948795502548272F5F3F4F2A17E7
:1013A0003B0700F3CA010895CF92DF92EF92FF92BC
:1013B0000F931F939C017B016A0180E090E0B901CB
:1013C0000E94A7090CE011E0B8010E94A709B7012B
:1013D0000E94A709B8010E94A709B6010E94A709A7
:1013E000B8010E94A7091F910F91FF90EF90DF9025
:1013F000CF900895AF92BF92CF92DF92EF92FF927B
:101400000F931F93DF93CF93CDB7DEB7E2970FB65D
:10141000F894DEBF0FBECDBF5C0180ED97E00E9467
:1014200088090E946B09892B09F068C087E192E066
:101430000E943C10882309F061C0F3CF0C0F1D1FE0
:10144000F80111822DC06AE070E080E090E00E9417
:10145000D80D870187E192E00E943C10882309F4AF
:1014600059C00133110509F455C0F60180818D3052
:1014700009F450C08A3009F44DC00E946B09892BD1
:1014800009F048C078010894E11CF11C87E192E062
:101490000E945010F60181936F018A30A1F6CECFE1
:1014A000F6E0EF16F104B4F0EC0EFD1EF701118228
:1014B0008981823579F41F82CE010396B5010E949D
:1014C000EE009C0180E090E0232B11F481E090E09D
:1014D0009C0102C020E030E0C901E2960FB6F8940A
:1014E000DEBF0FBECDBFCF91DF911F910F91FF9057
:1014F000EF90DF90CF90BF90AF90089584EF91E090
:101500000E94880919826E010894C11CD11C00E058
:1015100010E0A0CF7801C4CFCF92DF92EF92FF927C
:101520000F931F936B017C018DB79EB70C970FB67D
:10153000F8949EBF0FBE8DBF0DB71EB70F5F1F4F34
:10154000EDB7FEB7528341838EE091E0F8019383BB
:101550008283C701B60128EE33E040E050E00E94EC
:10156000B713F8012483358346835783C701B60137
:1015700028EE33E040E050E00E94B713F8016087A6
:101580007187828793870E94FE008DB79EB70C9665
:101590000FB6F8949EBF0FBE8DBF1F910F91FF90A5
:1015A000EF90DF90CF900895CF92DF92EF92FF926D
:1015B0000F931F93CF93DF93EC018B017A010E946D
:1015C000D40900D000D000D0EDB7FEB7319625E8A1
:1015D000C22E21E0D22EADB7BEB71296DC92CE92CB
:1015E000119728E131E033832283958384830E941D
:1015F000FE008DB79EB706960FB6F8949EBF0FBE3D
:101600008DBF0E949B09CE01B801A70196010E94DF
:101610003009C6010E94FA09892B69F568EE73E06A
:1016200080E090E00E94D80D68EE73E080E090E0EA
:101630000E9426110E94D80DCE01B801A701960183
:101640000E943009C6010E94FA09892BA1F468EEB4
:1016500073E080E090E00E94D80D68EE73E080E0D7
:1016600090E00E9426110E94D80DCE01B801A7017A
:1016700096010E943009DF91CF911F910F91FF9049
:10168000EF90DF90CF9008950F931F93DF93CF9348
:1016900000D000D000D0CDB7DEB78E010F5F1F4F56
:1016A000A8010E948C0A8DE191E060E071E0A80140
:1016B0000E94D40A26960FB6F894DEBF0FBECDBFA7
:1016C000CF91DF911F910F9108958F929F92AF92CA
:1016D000BF92CF92DF92EF92FF920F931F93DF930F
:1016E000CF9300D0CDB7DEB77B018C014A0120E05B
:1016F00030E040E050E00E94AD1188233CF4CE0180
:1017000001966FE171E00E94F70001C01982C801E3
:10171000B7010E9419125B01C801B70120E030E057
:1017200040E050E00E94FC1218161CF42A2D6B2D8C
:1017300007C0C801B70190580E941912262F672FC1
:101740008DB79EB70A970FB6F8949EBF0FBE8DBF98
:10175000CDB6DEB60894C11CD11CEDB7FEB792829F
:10176000818281E291E0F60193838283CE0101962A
:101770009583848326836783B501882777FD8095C9
:10178000982F0E944C129B01AC01C801B7010E9426
:10179000481120E030E048EC52E40E9400130E941F
:1017A0001912CB0177FF03C0909581959F4FF601E9
:1017B000918780870E94FE008DB79EB70A960FB66C
:1017C000F8949EBF0FBE8DBF0F900F90CF91DF9109
:1017D0001F910F91FF90EF90DF90CF90BF90AF904F
:1017E0009F908F9008950F931F93DF93CF93CDB762
:1017F000DEB72A970FB6F894DEBF0FBECDBF8E01BD
:101800000F5F1F4FA8010E94650B8BE291E060E023
:1018100071E0A8010E94D40A2A960FB6F894DEBFA0
:101820000FBECDBFCF91DF911F910F9108958F9281
:101830009F92AF92BF92CF92DF92EF92FF920F935F
:101840001F93DF93CF93CDB7DEB72C970FB6F894E5
:10185000DEBF0FBECDBF8DE691E00E94A2068E01D5
:101860000F5F1F4FEE24FF2431E5C32ED12CCC0E89
:10187000DD1E8DE691E060E00E941608F8016083AD
:1018800071838283938320E030E046E852EC0E942B
:10189000FC1218163CF40894E11CF11CF3E0EF165E
:1018A000F104F4F40C5F1F4F0C151D0511F783E0D4
:1018B000E816F104ACF470E060EC99E784EC3FC00A
:1018C000ED82FE820F831887A986BA86CB86DC86D6
:1018D0000894811C911CE3E08E16910419F42BC02E
:1018E00088249924A980BA80CB80DC80ED80FE809A
:1018F0000F811885C601B501A80197010E94FC124D
:10190000181644F4E982FA820B831C83AD82BE82EE
:10191000CF82D886AD80BE80CF80D884E984FA8417
:101920000B851C85C601B501A80197010E94FC1218
:10193000181634F2CDCF7D816E819F818885272F47
:10194000362F492F582FB901CA012C960FB6F8949B
:10195000DEBF0FBECDBFCF91DF911F910F91FF90E2
:10196000EF90DF90CF90BF90AF909F908F900895B1
:1019700088E061E00E946A0E88E060E00E944A0E02
:10198000089588E061E00E944A0E88E061E00E94CC
:101990006A0E65E070E080E090E00E94D80D88E07B
:1019A00060E00E946A0E6FE070E080E090E00E94CC
:1019B000D80D0895EF92FF920F931F9380914A01E3
:1019C0008130C9F510924A0180917F019091800188
:1019D00001969093800180937F01069754F11092B5
:1019E000800110927F010E94C10C87E192E040E8E3
:1019F00055E260E070E00E94430F0E94170C7B01EB
:101A00008C0120E030E046E852EC0E94FC121816EF
:101A100024F4C801B7010E94F30B0E94EA080E9457
:101A2000440B65E070E080E090E00E94D80D0E94D9
:101A3000B80C0E9494081F910F91FF90EF900895A9
:101A40000E94C10C87E192E040E855E260E070E05E
:101A50000E94430F87E192E06DE271E00E94FC106A
:101A600087E192E00E943C108823D1F387E192E065
:101A70000E9450108D30A1F787E192E061E371E0A0
:101A80000E94FC1087E192E068E371E00E94FC1084
:101A90006AE070E080E090E00E94D80D8EE391E073
:101AA0000E9416098DE691E00E94250864E670E028
:101AB00080E090E00E94D80D83B78E7F83BF83B70C
:101AC0008D7F83BF83B7846083BF83B7877F83BFE6
:101AD00089E090E00E94B0080E94B80C08950E942E
:101AE000100E0E94200D0E94DA0CFDCF1F920F9263
:101AF0000FB60F9211242F933F934F935F936F93E1
:101B00007F938F939F93AF93BF9320918E013091DA
:101B10008F01409190015091910170919201DA01F1
:101B2000C9010296A11DB11D672F6A5F6D3730F0A4
:101B30006D57DA01C9010396A11DB11D6093920191
:101B400080938E0190938F01A0939001B0939101A7
:101B500080918A0190918B01A0918C01B0918D01AF
:101B60000196A11DB11D80938A0190938B01A093D2
:101B70008C01B0938D01BF91AF919F918F917F9117
:101B80006F915F914F913F912F910F900FBE0F90EA
:101B90001F9018958FB7F89420918E0130918F0186
:101BA00040919001509191018FBFB901CA010895F0
:101BB000EF92FF920F931F937B018C018FB7F894E4
:101BC00040918E0150918F0160919001709191012F
:101BD0008FBF2FB7F89480918E0190918F01A091C3
:101BE0009001B09191012FBF841B950BA60BB70BF1
:101BF000E816F9060A071B0760F71F910F91FF907F
:101C0000EF900895019759F0019749F0FC01EE0F0C
:101C1000FF1F31978FB7F8943197F1F78FBF089571
:101C2000789484B5826084BD84B5816084BD85B5B7
:101C3000826085BD85B5816085BDEEE6F0E080817E
:101C400081608083E1E8F0E0808182608083808130
:101C500081608083E0E8F0E0808181608083E1EB57
:101C6000F0E0808184608083E0EBF0E0808181603F
:101C70008083EAE7F0E080818460808380818260F5
:101C800080838081816080838081806880831092DE
:101C9000C1000895282F30E0C90186569F4FFC01EE
:101CA00094912A573F4FF9018491882391F0E82FAE
:101CB000F0E0EE0FFF1FE859FF4FA591B4916623A6
:101CC00029F48C91909589238C9308958C91892B7C
:101CD0008C930895482F50E0CA0182559F4FFC0114
:101CE0002491CA0186569F4FFC0194914A575F4F39
:101CF000FA0134913323D1F1222331F1233021F43D
:101D0000809180008F7705C0243031F4809180006D
:101D10008F7D8093800018C0213019F484B58F77AF
:101D200004C0223021F484B58F7D84BD0DC02630DF
:101D300021F48091B0008F7705C0273029F480917D
:101D4000B0008F7D8093B000E32FF0E0EE0FFF1F17
:101D5000EE58FF4FA591B491662329F48C9190958C
:101D600089238C9308958C91892B8C930895682FE7
:101D700070E0CB0182559F4FFC012491CB01865628
:101D80009F4FFC0144916A577F4FFB019491992327
:101D900019F420E030E038C0222331F1233021F45F
:101DA000809180008F7705C0243031F480918000CD
:101DB0008F7D8093800018C0213019F484B58F770F
:101DC00004C0223021F484B58F7D84BD0DC026303F
:101DD00021F48091B0008F7705C0273029F48091DD
:101DE000B0008F7D8093B000892F90E0880F991FFD
:101DF00084589F4FFC01A591B4918C9120E030E074
:101E0000842311F021E030E0C90108951F920F9260
:101E10000FB60F9211242F933F934F935F936F93BD
:101E20007F938F939F93AF93BF93EF93FF934091D3
:101E3000C600E0911302F0911402CF01019660E810
:101E400070E00E9482139C0180911502909116020D
:101E50002817390739F0ED56FE4F408330931402AE
:101E600020931302FF91EF91BF91AF919F918F91BA
:101E70007F916F915F914F913F912F910F900FBE86
:101E80000F901F9018955F926F927F928F929F9202
:101E9000AF92BF92CF92DF92EF92FF920F931F9378
:101EA000CF93DF93EC013A014B01413281EA5807AD
:101EB00087E0680780E078070CF07FC060E472E498
:101EC0008FE090E0A40193010E94B71321503040AD
:101ED00040405040CA01B90122E030E040E050E00B
:101EE0000E94B71359016A01A6019501209530950A
:101EF0004095509594E0220F331F441F551F9A952B
:101F0000D1F760E072E18AE790E00E94B713CA015E
:101F1000B9012FEF30E040E050E00E946313A401CC
:101F200093010E94B713C90181509F4F18161906DB
:101F30001CF4522E5A9403C055245394521A60E84C
:101F400074E88EE190E0A40193010E94B713215040
:101F5000304040405040CA01B90122E030E040E04A
:101F600050E00E94B713209530954095509583E03E
:101F7000220F331F441F551F8A95D1F760E072E18D
:101F80008AE790E00E94B713CA01B9012FEF30E051
:101F900040E050E00E946313A40193010E94B71334
:101FA000C90181509F4F181619061CF4822F8150C9
:101FB00002C081E0821B851500F5E885F98581E086
:101FC00090E00A8802C0880F991F0A94E2F7808384
:101FD00060E874E88EE190E0A40193010E94B713D9
:101FE0002150304040405040CA01B90122E030E069
:101FF00040E050E00E94B71304C0E885F9851082E4
:102000009501EC81FD813083EE81FF812083EA859B
:10201000FB85208141E050E0CA010E8402C0880F98
:10202000991F0A94E2F7282B2083EA85FB852081FB
:10203000CA010F8402C0880F991F0A94E2F7282B67
:102040002083EA85FB858081088802C0440F551FE4
:102050000A94E2F7842B8083DF91CF911F910F9137
:10206000FF90EF90DF90CF90BF90AF909F908F90B8
:102070007F906F905F900895DC011296ED91FC9136
:102080001397E058FF4F8191919180589F4F208185
:102090003181821B930B60E870E00E9482130895E7
:1020A000CF93DF93DC011296ED91FC911397EF0132
:1020B000CE57DF4F48815981E058FF4F8081918191
:1020C000E058F0408417950719F42FEF3FEF0CC04C
:1020D000E40FF51F2081CA01019660E870E00E94BC
:1020E00082139983888330E0C901DF91CF910895ED
:1020F000FC01A085B18521898C9190E0022E02C05F
:10210000959587950A94E2F780FFF6CF0484F585CC
:10211000E02D6083089583E591E090931802809309
:10212000170283E991E090931A028093190285ECDB
:1021300090E090931C0280931B0284EC90E09093BB
:102140001E0280931D0280EC90E090932002809309
:102150001F0281EC90E0909322028093210286EC92
:1021600090E0909324028093230284E080932502E0
:1021700083E08093260287E08093270285E08093A6
:10218000280281E08093290208950F931F93CF9333
:10219000DF938C01EB0109C02196D801ED91FC91F0
:1021A0000190F081E02DC801099568816623A1F7AF
:1021B000DF91CF911F910F910895EF92FF920F93AE
:1021C0001F93CF93DF938C017B01EA010CC0D701F1
:1021D0006D917D01D801ED91FC910190F081E02D90
:1021E000C80109952197209791F7DF91CF911F9111
:1021F0000F91FF90EF900895DC01ED91FC9102802A
:10220000F381E02D099508950F931F938C01DC0154
:10221000ED91FC910190F081E02D6DE00995D801E0
:10222000ED91FC910190F081E02DC8016AE00995E3
:102230001F910F9108950F931F938C010E94FC1022
:10224000C8010E9404111F910F910895EF92FF920F
:102250000F931F937B018C01611571058105910519
:1022600029F420E030E040E050E00BC00E94E000A4
:10227000A80197010E94B713AC01CB01DA019C01C0
:10228000AD01B901CA011F910F91FF90EF90089520
:102290005058BB27AA270ED075C166D130F06BD13C
:1022A00020F031F49F3F11F41EF45BC10EF4E09571
:1022B000E7FB51C1E92F77D180F3BA1762077307A3
:1022C0008407950718F071F49EF58FC10EF4E09520
:1022D0000B2EBA2FA02D0B01B90190010C01CA01E0
:1022E000A0011124FF27591B99F0593F50F4503E8B
:1022F00068F11A16F040A22F232F342F4427585F7D
:10230000F3CF469537952795A795F0405395C9F794
:102310007EF41F16BA0B620B730B840BBAF091504C
:10232000A1F0FF0FBB1F661F771F881FC2F70EC0EB
:10233000BA0F621F731F841F48F4879577956795BE
:10234000B795F7959E3F08F0B3CF9395880F08F0A7
:102350009927EE0F979587950895D9D008F481E0D5
:1023600008950CD00FC107D140F0FED030F021F419
:102370005F3F19F0F0C0511139C1F3C014D198F387
:102380009923C9F35523B1F3951B550BBB27AA27F6
:1023900062177307840738F09F5F5F4F220F331F68
:1023A000441FAA1FA9F333D00E2E3AF0E0E830D034
:1023B00091505040E695001CCAF729D0FE2F27D037
:1023C000660F771F881FBB1F261737074807AB0705
:1023D000B0E809F0BB0B802DBF01FF2793585F4F7A
:1023E0002AF09E3F510568F0B6C000C15F3FECF394
:1023F000983EDCF3869577956795B795F7959F5F3F
:10240000C9F7880F911D9695879597F90895E1E092
:10241000660F771F881FBB1F621773078407BA07F1
:1024200020F0621B730B840BBA0BEE1F88F7E0954C
:10243000089504D06894B111D9C00895BCD088F033
:102440009F5790F0B92F9927B751A0F0D1F0660FA0
:10245000771F881F991F1AF0BA95C9F712C0B130BB
:1024600081F0C3D0B1E00895C0C0672F782F8827CE
:10247000B85F39F0B93FCCF3869577956795B395FA
:10248000D9F73EF490958095709561957F4F8F4F69
:102490009F4F0895E89409C097FB3EF4909580956E
:1024A000709561957F4F8F4F9F4F9923A9F0F92F1A
:1024B00096E9BB279395F695879577956795B79598
:1024C000F111F8CFFAF4BB0F11F460FF1BC06F5F7E
:1024D0007F4F8F4F9F4F16C0882311F096E911C090
:1024E000772321F09EE8872F762F05C0662371F0B1
:1024F00096E8862F70E060E02AF09A95660F771FC5
:10250000881FDAF7880F9695879597F90895990FA0
:102510000008550FAA0BE0E8FEEF16161706E807AD
:10252000F907C0F012161306E407F50798F0621BCE
:10253000730B840B950B39F40A2661F0232B242BA3
:10254000252B21F408950A2609F4A140A6958FEFC2
:10255000811D811D089597F99F6780E870E060E014
:1025600008959FEF80EC089500240A94161617062C
:1025700018060906089500240A9412161306140674
:1025800005060895092E0394000C11F4882352F0D7
:10259000BB0F40F4BF2B11F460FF04C06F5F7F4F8F
:1025A0008F4F9F4F089557FD9058440F551F59F076
:1025B0005F3F71F04795880F97FB991F61F09F3F30
:1025C00079F087950895121613061406551FF2CF59
:1025D0004695F1DF08C0161617061806991FF1CFA9
:1025E00086957105610508940895E894BB276627D0
:1025F0007727CB0197F908958ADF08F48FEF0895C4
:102600000BD0C0CFB1DF28F0B6DF18F0952309F06A
:10261000A2CFA7CF1124EACFC6DFA0F3959FD1F3B5
:10262000950F50E0551F629FF001729FBB27F00D80
:10263000B11D639FAA27F00DB11DAA1F649F6627D5
:10264000B00DA11D661F829F2227B00DA11D621F24
:10265000739FB00DA11D621F839FA00D611D221FDE
:10266000749F3327A00D611D231F849F600D211DC2
:10267000822F762F6A2F11249F5750408AF0E1F065
:1026800088234AF0EE0FFF1FBB1F661F771F881FAE
:1026900091505040A9F79E3F510570F05CCFA6CFF6
:1026A0005F3FECF3983EDCF3869577956795B79599
:1026B000F795E7959F5FC1F7FE2B880F911D9695C3
:1026C000879597F90895629FD001739FF001829FCB
:1026D000E00DF11D649FE00DF11D929FF00D839FB1
:1026E000F00D749FF00D659FF00D9927729FB00D4E
:1026F000E11DF91F639FB00DE11DF91FBD01CF0161
:102700001124089597FB092E07260AD077FD04D0DF
:1027100049D006D000201AF4709561957F4F089536
:10272000F6F7909581959F4F0895A1E21A2EAA1B66
:10273000BB1BFD010DC0AA1FBB1FEE1FFF1FA21771
:10274000B307E407F50720F0A21BB30BE40BF50B6E
:10275000661F771F881F991F1A9469F760957095F7
:10276000809590959B01AC01BD01CF01089597FB29
:10277000092E05260ED057FD04D0D7DF0AD0001C45
:1027800038F450954095309521953F4F4F4F5F4F0E
:102790000895F6F790958095709561957F4F8F4FCE
:1027A0009F4F0895AA1BBB1B51E107C0AA1FBB1F67
:1027B000A617B70710F0A61BB70B881F991F5A95CD
:1027C000A9F780959095BC01CD010895EE0FFF1FEC
:1027D0000590F491E02D09942F923F924F925F92D1
:1027E0006F927F928F929F92AF92BF92CF92DF9221
:1027F000EF92FF920F931F93CF93DF93CDB7DEB786
:10280000CA1BDB0B0FB6F894DEBF0FBECDBF099419
:102810002A88398848885F846E847D848C849B8470
:10282000AA84B984C884DF80EE80FD800C811B817E
:10283000AA81B981CE0FD11D0FB6F894DEBF0FBEAD
:0A284000CDBFED010895F894FFCF1D
:10284A00626564726F6F6D00202D20003A00256C5E
:10285A00642E2530336C6400253034580056002D20
:10286A0000257325642E253032640054002B2B2B4F
:10287A00004154534D310D004154434E0D00626FD7
:10288A006F74696E670001000000010537370500A3
:0A289A000000007810C510DD1000EA
:00000001FF
